{
  "_format": "hh-sol-artifact-1",
  "contractName": "Multi_Vote",
  "sourceName": "contracts/Multi_Vote.sol",
  "abi": [
    {
      "inputs": [
        {
          "internalType": "uint256",
          "name": "_total_supply",
          "type": "uint256"
        }
      ],
      "stateMutability": "nonpayable",
      "type": "constructor"
    },
    {
      "inputs": [
        {
          "internalType": "address",
          "name": "_to",
          "type": "address"
        },
        {
          "internalType": "uint256",
          "name": "_amount",
          "type": "uint256"
        }
      ],
      "name": "delegateTo",
      "outputs": [],
      "stateMutability": "nonpayable",
      "type": "function"
    },
    {
      "inputs": [],
      "name": "end_vote",
      "outputs": [
        {
          "internalType": "uint8",
          "name": "result",
          "type": "uint8"
        }
      ],
      "stateMutability": "nonpayable",
      "type": "function"
    },
    {
      "inputs": [],
      "name": "get_curr_proposal",
      "outputs": [
        {
          "internalType": "uint256",
          "name": "",
          "type": "uint256"
        }
      ],
      "stateMutability": "view",
      "type": "function"
    },
    {
      "inputs": [
        {
          "internalType": "uint256",
          "name": "_proposal",
          "type": "uint256"
        }
      ],
      "name": "get_proposal_abstain",
      "outputs": [
        {
          "internalType": "uint256",
          "name": "",
          "type": "uint256"
        }
      ],
      "stateMutability": "view",
      "type": "function"
    },
    {
      "inputs": [
        {
          "internalType": "uint256",
          "name": "_proposal",
          "type": "uint256"
        }
      ],
      "name": "get_proposal_against",
      "outputs": [
        {
          "internalType": "uint256",
          "name": "",
          "type": "uint256"
        }
      ],
      "stateMutability": "view",
      "type": "function"
    },
    {
      "inputs": [
        {
          "internalType": "uint256",
          "name": "_proposal",
          "type": "uint256"
        }
      ],
      "name": "get_proposal_pro",
      "outputs": [
        {
          "internalType": "uint256",
          "name": "",
          "type": "uint256"
        }
      ],
      "stateMutability": "view",
      "type": "function"
    },
    {
      "inputs": [
        {
          "internalType": "uint256",
          "name": "_proposal",
          "type": "uint256"
        }
      ],
      "name": "get_proposal_result",
      "outputs": [
        {
          "internalType": "uint8",
          "name": "",
          "type": "uint8"
        }
      ],
      "stateMutability": "view",
      "type": "function"
    },
    {
      "inputs": [],
      "name": "get_total_supply",
      "outputs": [
        {
          "internalType": "uint256",
          "name": "",
          "type": "uint256"
        }
      ],
      "stateMutability": "view",
      "type": "function"
    },
    {
      "inputs": [
        {
          "internalType": "address",
          "name": "user",
          "type": "address"
        },
        {
          "internalType": "address",
          "name": "delegatee",
          "type": "address"
        }
      ],
      "name": "get_user_delgated_amount",
      "outputs": [
        {
          "internalType": "uint256",
          "name": "",
          "type": "uint256"
        }
      ],
      "stateMutability": "view",
      "type": "function"
    },
    {
      "inputs": [
        {
          "internalType": "address",
          "name": "user",
          "type": "address"
        },
        {
          "internalType": "uint256",
          "name": "index",
          "type": "uint256"
        }
      ],
      "name": "get_user_history",
      "outputs": [
        {
          "internalType": "address",
          "name": "",
          "type": "address"
        }
      ],
      "stateMutability": "view",
      "type": "function"
    },
    {
      "inputs": [
        {
          "internalType": "address",
          "name": "user",
          "type": "address"
        }
      ],
      "name": "get_user_history_size",
      "outputs": [
        {
          "internalType": "uint256",
          "name": "",
          "type": "uint256"
        }
      ],
      "stateMutability": "view",
      "type": "function"
    },
    {
      "inputs": [
        {
          "internalType": "address",
          "name": "user",
          "type": "address"
        }
      ],
      "name": "get_user_total_availible",
      "outputs": [
        {
          "internalType": "uint256",
          "name": "",
          "type": "uint256"
        }
      ],
      "stateMutability": "view",
      "type": "function"
    },
    {
      "inputs": [
        {
          "internalType": "address",
          "name": "user",
          "type": "address"
        }
      ],
      "name": "get_user_total_balance",
      "outputs": [
        {
          "internalType": "uint256",
          "name": "",
          "type": "uint256"
        }
      ],
      "stateMutability": "view",
      "type": "function"
    },
    {
      "inputs": [
        {
          "internalType": "address",
          "name": "user",
          "type": "address"
        }
      ],
      "name": "get_user_total_power",
      "outputs": [
        {
          "internalType": "uint256",
          "name": "",
          "type": "uint256"
        }
      ],
      "stateMutability": "view",
      "type": "function"
    },
    {
      "inputs": [
        {
          "internalType": "uint256",
          "name": "_proposal",
          "type": "uint256"
        },
        {
          "internalType": "address",
          "name": "voter",
          "type": "address"
        }
      ],
      "name": "get_vote_amount",
      "outputs": [
        {
          "internalType": "uint256",
          "name": "",
          "type": "uint256"
        }
      ],
      "stateMutability": "view",
      "type": "function"
    },
    {
      "inputs": [],
      "name": "get_vote_in_progress",
      "outputs": [
        {
          "internalType": "bool",
          "name": "",
          "type": "bool"
        }
      ],
      "stateMutability": "view",
      "type": "function"
    },
    {
      "inputs": [
        {
          "internalType": "uint256",
          "name": "_proposal",
          "type": "uint256"
        },
        {
          "internalType": "address",
          "name": "voter",
          "type": "address"
        }
      ],
      "name": "get_vote_position",
      "outputs": [
        {
          "internalType": "uint8",
          "name": "",
          "type": "uint8"
        }
      ],
      "stateMutability": "view",
      "type": "function"
    },
    {
      "inputs": [],
      "name": "propose",
      "outputs": [],
      "stateMutability": "nonpayable",
      "type": "function"
    },
    {
      "inputs": [
        {
          "internalType": "address",
          "name": "_to",
          "type": "address"
        },
        {
          "internalType": "uint256",
          "name": "_amount",
          "type": "uint256"
        }
      ],
      "name": "transferTo",
      "outputs": [],
      "stateMutability": "nonpayable",
      "type": "function"
    },
    {
      "inputs": [],
      "name": "unVote",
      "outputs": [],
      "stateMutability": "nonpayable",
      "type": "function"
    },
    {
      "inputs": [
        {
          "internalType": "address",
          "name": "_to",
          "type": "address"
        },
        {
          "internalType": "uint256",
          "name": "_amount",
          "type": "uint256"
        }
      ],
      "name": "undelegate",
      "outputs": [],
      "stateMutability": "nonpayable",
      "type": "function"
    },
    {
      "inputs": [
        {
          "internalType": "uint8",
          "name": "_position",
          "type": "uint8"
        },
        {
          "internalType": "uint256",
          "name": "_amount",
          "type": "uint256"
        }
      ],
      "name": "vote",
      "outputs": [],
      "stateMutability": "nonpayable",
      "type": "function"
    }
  ],
  "bytecode": "0x60806040523480156200001157600080fd5b5060405162001fb838038062001fb883398181016040528101906200003791906200014a565b8060028190555060003390506000600460008373ffffffffffffffffffffffffffffffffffffffff1673ffffffffffffffffffffffffffffffffffffffff1681526020019081526020016000209050828160010160008282546200009c9190620001ab565b9250508190555082816000016000828254620000b99190620001ab565b9250508190555033600560006101000a81548173ffffffffffffffffffffffffffffffffffffffff021916908373ffffffffffffffffffffffffffffffffffffffff160217905550505050620001e6565b600080fd5b6000819050919050565b62000124816200010f565b81146200013057600080fd5b50565b600081519050620001448162000119565b92915050565b6000602082840312156200016357620001626200010a565b5b6000620001738482850162000133565b91505092915050565b7f4e487b7100000000000000000000000000000000000000000000000000000000600052601160045260246000fd5b6000620001b8826200010f565b9150620001c5836200010f565b9250828201905080821115620001e057620001df6200017c565b5b92915050565b611dc280620001f66000396000f3fe608060405234801561001057600080fd5b50600436106101425760003560e01c8063b39649ea116100b8578063ddaeb1d01161007c578063ddaeb1d014610387578063de5740d2146103b7578063df6578be146103e7578063e5302c2f14610417578063e72997a814610447578063f923058c1461046557610142565b8063b39649ea146102e3578063c198f8ba14610313578063ca3adffc1461031d578063d3f29ace1461033b578063d81aeb201461035757610142565b80633c7e31171161010a5780633c7e3117146101eb5780634d99dd161461021b5780637363c9fa146102375780638bcd46201461026757806391b8f78514610283578063b3897a04146102b357610142565b80631cd6e9b8146101475780631f6933c3146101775780632c70d64e146101955780632ccb1b301461019f5780633bd5be94146101bb575b600080fd5b610161600480360381019061015c9190611653565b610483565b60405161016e9190611699565b60405180910390f35b61017f6104cf565b60405161018c91906116d0565b60405180910390f35b61019d6106a0565b005b6101b960048036038101906101b49190611717565b6108e0565b005b6101d560048036038101906101d09190611757565b610a2b565b6040516101e29190611699565b60405180910390f35b61020560048036038101906102009190611653565b610a8c565b6040516102129190611699565b60405180910390f35b61023560048036038101906102309190611717565b610ad8565b005b610251600480360381019061024c9190611717565b610cd2565b60405161025e91906117a6565b60405180910390f35b610281600480360381019061027c9190611717565b610d50565b005b61029d600480360381019061029891906117c1565b610f79565b6040516102aa9190611699565b60405180910390f35b6102cd60048036038101906102c89190611801565b611003565b6040516102da9190611699565b60405180910390f35b6102fd60048036038101906102f89190611653565b611023565b60405161030a9190611699565b60405180910390f35b61031b61106f565b005b610325611182565b6040516103329190611699565b60405180910390f35b6103556004803603810190610350919061185a565b61118b565b005b610371600480360381019061036c9190611757565b6114a8565b60405161037e91906116d0565b60405180910390f35b6103a1600480360381019061039c9190611801565b611516565b6040516103ae9190611699565b60405180910390f35b6103d160048036038101906103cc9190611653565b611536565b6040516103de9190611699565b60405180910390f35b61040160048036038101906103fc9190611801565b611582565b60405161040e9190611699565b60405180910390f35b610431600480360381019061042c9190611801565b6115a2565b60405161043e91906116d0565b60405180910390f35b61044f6115cf565b60405161045c91906118b5565b60405180910390f35b61046d6115e6565b60405161047a9190611699565b60405180910390f35b6000600460008373ffffffffffffffffffffffffffffffffffffffff1673ffffffffffffffffffffffffffffffffffffffff168152602001908152602001600020600101549050919050565b60003373ffffffffffffffffffffffffffffffffffffffff16600560009054906101000a900473ffffffffffffffffffffffffffffffffffffffff1673ffffffffffffffffffffffffffffffffffffffff1614610561576040517f08c379a00000000000000000000000000000000000000000000000000000000081526004016105589061192d565b60405180910390fd5b600160009054906101000a900460ff166105b0576040517f08c379a00000000000000000000000000000000000000000000000000000000081526004016105a790611999565b60405180910390fd5b6000600360008054815260200190815260200160002090506000600160006101000a81548160ff02191690831515021790555080600101548160000154118015610601575080600201548160000154115b1561062e5760018160040160006101000a81548160ff021916908360ff160217905550600191505061069d565b8060000154816001015411801561064c575080600201548160010154115b156106795760028160040160006101000a81548160ff021916908360ff160217905550600291505061069d565b60038160040160006101000a81548160ff021916908360ff16021790555060039150505b90565b600160009054906101000a900460ff166106ef576040517f08c379a00000000000000000000000000000000000000000000000000000000081526004016106e690611a05565b60405180910390fd5b600033905060006003600080548152602001908152602001600020905060008160030160008473ffffffffffffffffffffffffffffffffffffffff1673ffffffffffffffffffffffffffffffffffffffff168152602001908152602001600020604051806040016040529081600082015481526020016001820160009054906101000a900460ff1660ff1660ff16815250509050600081602001519050600082600001519050600081036107d8576040517f08c379a00000000000000000000000000000000000000000000000000000000081526004016107cf90611a71565b60405180910390fd5b60018260ff160361080357808460000160008282546107f79190611ac0565b9250508190555061084b565b60028260ff160361082e57808460010160008282546108229190611ac0565b9250508190555061084a565b808460020160008282546108429190611ac0565b925050819055505b5b60008360000181815250506000836020019060ff16908160ff1681525050828460030160008773ffffffffffffffffffffffffffffffffffffffff1673ffffffffffffffffffffffffffffffffffffffff1681526020019081526020016000206000820151816000015560208201518160010160006101000a81548160ff021916908360ff1602179055509050505050505050565b60003390506000600460008373ffffffffffffffffffffffffffffffffffffffff1673ffffffffffffffffffffffffffffffffffffffff168152602001908152602001600020905060008160010154905083811015610974576040517f08c379a000000000000000000000000000000000000000000000000000000000815260040161096b90611b40565b60405180910390fd5b6000600460008773ffffffffffffffffffffffffffffffffffffffff1673ffffffffffffffffffffffffffffffffffffffff1681526020019081526020016000209050848360010160008282546109cb9190611ac0565b92505081905550848160010160008282546109e69190611b60565b9250508190555084836000016000828254610a019190611ac0565b9250508190555084816000016000828254610a1c9190611b60565b92505081905550505050505050565b60006003600084815260200190815260200160002060030160008373ffffffffffffffffffffffffffffffffffffffff1673ffffffffffffffffffffffffffffffffffffffff16815260200190815260200160002060000154905092915050565b6000600460008373ffffffffffffffffffffffffffffffffffffffff1673ffffffffffffffffffffffffffffffffffffffff168152602001908152602001600020600501549050919050565b600160009054906101000a900460ff1615610b28576040517f08c379a0000000000000000000000000000000000000000000000000000000008152600401610b1f90611a05565b60405180910390fd5b60003390506000600460008373ffffffffffffffffffffffffffffffffffffffff1673ffffffffffffffffffffffffffffffffffffffff168152602001908152602001600020905060008160030160008673ffffffffffffffffffffffffffffffffffffffff1673ffffffffffffffffffffffffffffffffffffffff16815260200190815260200160002054905083811015610bf9576040517f08c379a0000000000000000000000000000000000000000000000000000000008152600401610bf090611be0565b60405180910390fd5b6000600460008773ffffffffffffffffffffffffffffffffffffffff1673ffffffffffffffffffffffffffffffffffffffff168152602001908152602001600020905084836001016000828254610c509190611b60565b92505081905550848360030160008873ffffffffffffffffffffffffffffffffffffffff1673ffffffffffffffffffffffffffffffffffffffff1681526020019081526020016000206000828254610ca89190611ac0565b9250508190555084816002016000828254610cc39190611ac0565b92505081905550505050505050565b6000600460008473ffffffffffffffffffffffffffffffffffffffff1673ffffffffffffffffffffffffffffffffffffffff168152602001908152602001600020600401600083815260200190815260200160002060009054906101000a900473ffffffffffffffffffffffffffffffffffffffff16905092915050565b60003390506000600460008373ffffffffffffffffffffffffffffffffffffffff1673ffffffffffffffffffffffffffffffffffffffff168152602001908152602001600020905060008160010154905083811015610de4576040517f08c379a0000000000000000000000000000000000000000000000000000000008152600401610ddb90611c4c565b60405180910390fd5b6000600460008773ffffffffffffffffffffffffffffffffffffffff1673ffffffffffffffffffffffffffffffffffffffff168152602001908152602001600020905060008360030160008873ffffffffffffffffffffffffffffffffffffffff1673ffffffffffffffffffffffffffffffffffffffff1681526020019081526020016000205403610ee357858360040160008560050154815260200190815260200160002060006101000a81548173ffffffffffffffffffffffffffffffffffffffff021916908373ffffffffffffffffffffffffffffffffffffffff160217905550826005016000815480929190610edd90611c6c565b91905055505b84836001016000828254610ef79190611ac0565b92505081905550848360030160008873ffffffffffffffffffffffffffffffffffffffff1673ffffffffffffffffffffffffffffffffffffffff1681526020019081526020016000206000828254610f4f9190611b60565b9250508190555084816002016000828254610f6a9190611b60565b92505081905550505050505050565b6000600460008473ffffffffffffffffffffffffffffffffffffffff1673ffffffffffffffffffffffffffffffffffffffff16815260200190815260200160002060030160008373ffffffffffffffffffffffffffffffffffffffff1673ffffffffffffffffffffffffffffffffffffffff16815260200190815260200160002054905092915050565b600060036000838152602001908152602001600020600101549050919050565b6000600460008373ffffffffffffffffffffffffffffffffffffffff1673ffffffffffffffffffffffffffffffffffffffff168152602001908152602001600020600001549050919050565b3373ffffffffffffffffffffffffffffffffffffffff16600560009054906101000a900473ffffffffffffffffffffffffffffffffffffffff1673ffffffffffffffffffffffffffffffffffffffff16146110ff576040517f08c379a00000000000000000000000000000000000000000000000000000000081526004016110f69061192d565b60405180910390fd5b600160009054906101000a900460ff161561114f576040517f08c379a000000000000000000000000000000000000000000000000000000000815260040161114690611a05565b60405180910390fd5b60008081548092919061116190611c6c565b919050555060018060006101000a81548160ff021916908315150217905550565b60008054905090565b600160009054906101000a900460ff166111da576040517f08c379a00000000000000000000000000000000000000000000000000000000081526004016111d190611a05565b60405180910390fd5b60018260ff1614806111ef575060028260ff16145b806111fd575060038260ff16145b61123c576040517f08c379a000000000000000000000000000000000000000000000000000000000815260040161123390611d00565b60405180910390fd5b600033905060006003600080548152602001908152602001600020905060008160030160008473ffffffffffffffffffffffffffffffffffffffff1673ffffffffffffffffffffffffffffffffffffffff168152602001908152602001600020604051806040016040529081600082015481526020016001820160009054906101000a900460ff1660ff1660ff168152505090506000816000015114611317576040517f08c379a000000000000000000000000000000000000000000000000000000000815260040161130e90611d6c565b60405180910390fd5b6000600460008573ffffffffffffffffffffffffffffffffffffffff1673ffffffffffffffffffffffffffffffffffffffff168152602001908152602001600020600201549050848110156113a1576040517f08c379a000000000000000000000000000000000000000000000000000000000815260040161139890611c4c565b60405180910390fd5b8482600001818152505085826020019060ff16908160ff168152505060018660ff16036113e857848360000160008282546113dc9190611b60565b92505081905550611430565b60028660ff160361141357848360010160008282546114079190611b60565b9250508190555061142f565b848360020160008282546114279190611b60565b925050819055505b5b818360030160008673ffffffffffffffffffffffffffffffffffffffff1673ffffffffffffffffffffffffffffffffffffffff1681526020019081526020016000206000820151816000015560208201518160010160006101000a81548160ff021916908360ff160217905550905050505050505050565b60006003600084815260200190815260200160002060030160008373ffffffffffffffffffffffffffffffffffffffff1673ffffffffffffffffffffffffffffffffffffffff16815260200190815260200160002060010160009054906101000a900460ff16905092915050565b600060036000838152602001908152602001600020600201549050919050565b6000600460008373ffffffffffffffffffffffffffffffffffffffff1673ffffffffffffffffffffffffffffffffffffffff168152602001908152602001600020600201549050919050565b600060036000838152602001908152602001600020600001549050919050565b60006003600083815260200190815260200160002060040160009054906101000a900460ff169050919050565b6000600160009054906101000a900460ff16905090565b6000600254905090565b600080fd5b600073ffffffffffffffffffffffffffffffffffffffff82169050919050565b6000611620826115f5565b9050919050565b61163081611615565b811461163b57600080fd5b50565b60008135905061164d81611627565b92915050565b600060208284031215611669576116686115f0565b5b60006116778482850161163e565b91505092915050565b6000819050919050565b61169381611680565b82525050565b60006020820190506116ae600083018461168a565b92915050565b600060ff82169050919050565b6116ca816116b4565b82525050565b60006020820190506116e560008301846116c1565b92915050565b6116f481611680565b81146116ff57600080fd5b50565b600081359050611711816116eb565b92915050565b6000806040838503121561172e5761172d6115f0565b5b600061173c8582860161163e565b925050602061174d85828601611702565b9150509250929050565b6000806040838503121561176e5761176d6115f0565b5b600061177c85828601611702565b925050602061178d8582860161163e565b9150509250929050565b6117a081611615565b82525050565b60006020820190506117bb6000830184611797565b92915050565b600080604083850312156117d8576117d76115f0565b5b60006117e68582860161163e565b92505060206117f78582860161163e565b9150509250929050565b600060208284031215611817576118166115f0565b5b600061182584828501611702565b91505092915050565b611837816116b4565b811461184257600080fd5b50565b6000813590506118548161182e565b92915050565b60008060408385031215611871576118706115f0565b5b600061187f85828601611845565b925050602061189085828601611702565b9150509250929050565b60008115159050919050565b6118af8161189a565b82525050565b60006020820190506118ca60008301846118a6565b92915050565b600082825260208201905092915050565b7f4f776e61626c653a2063616c6c6572206973206e6f7420746865206f776e6572600082015250565b60006119176020836118d0565b9150611922826118e1565b602082019050919050565b600060208201905081810360008301526119468161190a565b9050919050565b7f766f7465206e6f7420696e2070726f6772657373000000000000000000000000600082015250565b60006119836014836118d0565b915061198e8261194d565b602082019050919050565b600060208201905081810360008301526119b281611976565b9050919050565b7f766f746520696e2070726f677265737300000000000000000000000000000000600082015250565b60006119ef6010836118d0565b91506119fa826119b9565b602082019050919050565b60006020820190508181036000830152611a1e816119e2565b9050919050565b7f6e6f7420766f7465642079657400000000000000000000000000000000000000600082015250565b6000611a5b600d836118d0565b9150611a6682611a25565b602082019050919050565b60006020820190508181036000830152611a8a81611a4e565b9050919050565b7f4e487b7100000000000000000000000000000000000000000000000000000000600052601160045260246000fd5b6000611acb82611680565b9150611ad683611680565b9250828203905081811115611aee57611aed611a91565b5b92915050565b7f6e6f7420656e6f75676820766f74657300000000000000000000000000000000600082015250565b6000611b2a6010836118d0565b9150611b3582611af4565b602082019050919050565b60006020820190508181036000830152611b5981611b1d565b9050919050565b6000611b6b82611680565b9150611b7683611680565b9250828201905080821115611b8e57611b8d611a91565b5b92915050565b7f756e64656c676174696e67206d6f7265207468616e2062616c616e6365000000600082015250565b6000611bca601d836118d0565b9150611bd582611b94565b602082019050919050565b60006020820190508181036000830152611bf981611bbd565b9050919050565b7f6e6f7420656e6f75676820766f74657320617661696c69626c65000000000000600082015250565b6000611c36601a836118d0565b9150611c4182611c00565b602082019050919050565b60006020820190508181036000830152611c6581611c29565b9050919050565b6000611c7782611680565b91507fffffffffffffffffffffffffffffffffffffffffffffffffffffffffffffffff8203611ca957611ca8611a91565b5b600182019050919050565b7f766f7465206e6f742076616c6964000000000000000000000000000000000000600082015250565b6000611cea600e836118d0565b9150611cf582611cb4565b602082019050919050565b60006020820190508181036000830152611d1981611cdd565b9050919050565b7f616c726561647920766f74656400000000000000000000000000000000000000600082015250565b6000611d56600d836118d0565b9150611d6182611d20565b602082019050919050565b60006020820190508181036000830152611d8581611d49565b905091905056fea2646970667358221220c21ec72c08f15feca2000f037540961f58fe2c7d479730f86955f8db012d5dbc64736f6c63430008110033",
  "linkReferences": {},
  "deployedLinkReferences": {}
}