{
  "_format": "hh-sol-artifact-1",
  "contractName": "Multi_Vote",
  "sourceName": "contracts/Multi_Vote.sol",
  "abi": [
    {
      "inputs": [
        {
          "internalType": "uint256",
          "name": "_total_supply",
          "type": "uint256"
        }
      ],
      "stateMutability": "nonpayable",
      "type": "constructor"
    },
    {
      "inputs": [
        {
          "internalType": "address",
          "name": "_to",
          "type": "address"
        },
        {
          "internalType": "uint256",
          "name": "_amount",
          "type": "uint256"
        }
      ],
      "name": "delegateTo",
      "outputs": [],
      "stateMutability": "nonpayable",
      "type": "function"
    },
    {
      "inputs": [],
      "name": "end_vote",
      "outputs": [
        {
          "internalType": "uint8",
          "name": "result",
          "type": "uint8"
        }
      ],
      "stateMutability": "nonpayable",
      "type": "function"
    },
    {
      "inputs": [],
      "name": "get_curr_proposal",
      "outputs": [
        {
          "internalType": "uint256",
          "name": "",
          "type": "uint256"
        }
      ],
      "stateMutability": "view",
      "type": "function"
    },
    {
      "inputs": [
        {
          "internalType": "uint256",
          "name": "_proposal",
          "type": "uint256"
        }
      ],
      "name": "get_proposal_abstain",
      "outputs": [
        {
          "internalType": "uint256",
          "name": "",
          "type": "uint256"
        }
      ],
      "stateMutability": "view",
      "type": "function"
    },
    {
      "inputs": [
        {
          "internalType": "uint256",
          "name": "_proposal",
          "type": "uint256"
        }
      ],
      "name": "get_proposal_against",
      "outputs": [
        {
          "internalType": "uint256",
          "name": "",
          "type": "uint256"
        }
      ],
      "stateMutability": "view",
      "type": "function"
    },
    {
      "inputs": [
        {
          "internalType": "uint256",
          "name": "_proposal",
          "type": "uint256"
        }
      ],
      "name": "get_proposal_pro",
      "outputs": [
        {
          "internalType": "uint256",
          "name": "",
          "type": "uint256"
        }
      ],
      "stateMutability": "view",
      "type": "function"
    },
    {
      "inputs": [
        {
          "internalType": "uint256",
          "name": "_proposal",
          "type": "uint256"
        }
      ],
      "name": "get_proposal_result",
      "outputs": [
        {
          "internalType": "uint8",
          "name": "",
          "type": "uint8"
        }
      ],
      "stateMutability": "view",
      "type": "function"
    },
    {
      "inputs": [],
      "name": "get_total_supply",
      "outputs": [
        {
          "internalType": "uint256",
          "name": "",
          "type": "uint256"
        }
      ],
      "stateMutability": "view",
      "type": "function"
    },
    {
      "inputs": [
        {
          "internalType": "address",
          "name": "user",
          "type": "address"
        },
        {
          "internalType": "address",
          "name": "delegatee",
          "type": "address"
        }
      ],
      "name": "get_user_delgated_amount",
      "outputs": [
        {
          "internalType": "uint256",
          "name": "",
          "type": "uint256"
        }
      ],
      "stateMutability": "view",
      "type": "function"
    },
    {
      "inputs": [
        {
          "internalType": "address",
          "name": "user",
          "type": "address"
        }
      ],
      "name": "get_user_total_availible",
      "outputs": [
        {
          "internalType": "uint256",
          "name": "",
          "type": "uint256"
        }
      ],
      "stateMutability": "view",
      "type": "function"
    },
    {
      "inputs": [
        {
          "internalType": "address",
          "name": "user",
          "type": "address"
        }
      ],
      "name": "get_user_total_balance",
      "outputs": [
        {
          "internalType": "uint256",
          "name": "",
          "type": "uint256"
        }
      ],
      "stateMutability": "view",
      "type": "function"
    },
    {
      "inputs": [
        {
          "internalType": "address",
          "name": "user",
          "type": "address"
        }
      ],
      "name": "get_user_total_power",
      "outputs": [
        {
          "internalType": "uint256",
          "name": "",
          "type": "uint256"
        }
      ],
      "stateMutability": "view",
      "type": "function"
    },
    {
      "inputs": [
        {
          "internalType": "uint256",
          "name": "_proposal",
          "type": "uint256"
        },
        {
          "internalType": "address",
          "name": "voter",
          "type": "address"
        }
      ],
      "name": "get_vote_amount",
      "outputs": [
        {
          "internalType": "uint256",
          "name": "",
          "type": "uint256"
        }
      ],
      "stateMutability": "view",
      "type": "function"
    },
    {
      "inputs": [],
      "name": "get_vote_in_progress",
      "outputs": [
        {
          "internalType": "bool",
          "name": "",
          "type": "bool"
        }
      ],
      "stateMutability": "view",
      "type": "function"
    },
    {
      "inputs": [
        {
          "internalType": "uint256",
          "name": "_proposal",
          "type": "uint256"
        },
        {
          "internalType": "address",
          "name": "voter",
          "type": "address"
        }
      ],
      "name": "get_vote_position",
      "outputs": [
        {
          "internalType": "uint8",
          "name": "",
          "type": "uint8"
        }
      ],
      "stateMutability": "view",
      "type": "function"
    },
    {
      "inputs": [],
      "name": "propose",
      "outputs": [],
      "stateMutability": "nonpayable",
      "type": "function"
    },
    {
      "inputs": [
        {
          "internalType": "address",
          "name": "_to",
          "type": "address"
        },
        {
          "internalType": "uint256",
          "name": "_amount",
          "type": "uint256"
        }
      ],
      "name": "transferTo",
      "outputs": [],
      "stateMutability": "nonpayable",
      "type": "function"
    },
    {
      "inputs": [],
      "name": "unVote",
      "outputs": [],
      "stateMutability": "nonpayable",
      "type": "function"
    },
    {
      "inputs": [
        {
          "internalType": "address",
          "name": "_to",
          "type": "address"
        },
        {
          "internalType": "uint256",
          "name": "_amount",
          "type": "uint256"
        }
      ],
      "name": "undelegate",
      "outputs": [],
      "stateMutability": "nonpayable",
      "type": "function"
    },
    {
      "inputs": [
        {
          "internalType": "uint8",
          "name": "_position",
          "type": "uint8"
        },
        {
          "internalType": "uint256",
          "name": "_amount",
          "type": "uint256"
        }
      ],
      "name": "vote",
      "outputs": [],
      "stateMutability": "nonpayable",
      "type": "function"
    }
  ],
  "bytecode": "0x60806040523480156200001157600080fd5b5060405162001bc538038062001bc5833981810160405281019062000037919062000109565b8060028190555060003390506000600460008373ffffffffffffffffffffffffffffffffffffffff1673ffffffffffffffffffffffffffffffffffffffff1681526020019081526020016000209050828160010160008282546200009c91906200016a565b9250508190555082816000016000828254620000b991906200016a565b92505081905550505050620001a5565b600080fd5b6000819050919050565b620000e381620000ce565b8114620000ef57600080fd5b50565b6000815190506200010381620000d8565b92915050565b600060208284031215620001225762000121620000c9565b5b60006200013284828501620000f2565b91505092915050565b7f4e487b7100000000000000000000000000000000000000000000000000000000600052601160045260246000fd5b60006200017782620000ce565b91506200018483620000ce565b92508282019050808211156200019f576200019e6200013b565b5b92915050565b611a1080620001b56000396000f3fe608060405234801561001057600080fd5b506004361061012c5760003560e01c8063c198f8ba116100ad578063de5740d211610071578063de5740d214610341578063df6578be14610371578063e5302c2f146103a1578063e72997a8146103d1578063f923058c146103ef5761012c565b8063c198f8ba1461029d578063ca3adffc146102a7578063d3f29ace146102c5578063d81aeb20146102e1578063ddaeb1d0146103115761012c565b80634d99dd16116100f45780634d99dd16146101d55780638bcd4620146101f157806391b8f7851461020d578063b3897a041461023d578063b39649ea1461026d5761012c565b80631cd6e9b8146101315780631f6933c3146101615780632c70d64e1461017f5780632ccb1b30146101895780633bd5be94146101a5575b600080fd5b61014b60048036038101906101469190611337565b61040d565b604051610158919061137d565b60405180910390f35b610169610459565b60405161017691906113b4565b60405180910390f35b61018761059a565b005b6101a3600480360381019061019e91906113fb565b6107da565b005b6101bf60048036038101906101ba919061143b565b610925565b6040516101cc919061137d565b60405180910390f35b6101ef60048036038101906101ea91906113fb565b610986565b005b61020b600480360381019061020691906113fb565b610b80565b005b6102276004803603810190610222919061147b565b610ced565b604051610234919061137d565b60405180910390f35b610257600480360381019061025291906114bb565b610d77565b604051610264919061137d565b60405180910390f35b61028760048036038101906102829190611337565b610d97565b604051610294919061137d565b60405180910390f35b6102a5610de3565b005b6102af610e66565b6040516102bc919061137d565b60405180910390f35b6102df60048036038101906102da9190611514565b610e6f565b005b6102fb60048036038101906102f6919061143b565b61118c565b60405161030891906113b4565b60405180910390f35b61032b600480360381019061032691906114bb565b6111fa565b604051610338919061137d565b60405180910390f35b61035b60048036038101906103569190611337565b61121a565b604051610368919061137d565b60405180910390f35b61038b600480360381019061038691906114bb565b611266565b604051610398919061137d565b60405180910390f35b6103bb60048036038101906103b691906114bb565b611286565b6040516103c891906113b4565b60405180910390f35b6103d96112b3565b6040516103e6919061156f565b60405180910390f35b6103f76112ca565b604051610404919061137d565b60405180910390f35b6000600460008373ffffffffffffffffffffffffffffffffffffffff1673ffffffffffffffffffffffffffffffffffffffff168152602001908152602001600020600101549050919050565b6000600160009054906101000a900460ff166104aa576040517f08c379a00000000000000000000000000000000000000000000000000000000081526004016104a1906115e7565b60405180910390fd5b6000600360008054815260200190815260200160002090506000600160006101000a81548160ff021916908315150217905550806001015481600001541180156104fb575080600201548160000154115b156105285760018160040160006101000a81548160ff021916908360ff1602179055506001915050610597565b80600001548160010154118015610546575080600201548160010154115b156105735760028160040160006101000a81548160ff021916908360ff1602179055506002915050610597565b60038160040160006101000a81548160ff021916908360ff16021790555060039150505b90565b600160009054906101000a900460ff166105e9576040517f08c379a00000000000000000000000000000000000000000000000000000000081526004016105e090611653565b60405180910390fd5b600033905060006003600080548152602001908152602001600020905060008160030160008473ffffffffffffffffffffffffffffffffffffffff1673ffffffffffffffffffffffffffffffffffffffff168152602001908152602001600020604051806040016040529081600082015481526020016001820160009054906101000a900460ff1660ff1660ff16815250509050600081602001519050600082600001519050600081036106d2576040517f08c379a00000000000000000000000000000000000000000000000000000000081526004016106c9906116bf565b60405180910390fd5b60018260ff16036106fd57808460000160008282546106f1919061170e565b92505081905550610745565b60028260ff1603610728578084600101600082825461071c919061170e565b92505081905550610744565b8084600201600082825461073c919061170e565b925050819055505b5b60008360000181815250506000836020019060ff16908160ff1681525050828460030160008773ffffffffffffffffffffffffffffffffffffffff1673ffffffffffffffffffffffffffffffffffffffff1681526020019081526020016000206000820151816000015560208201518160010160006101000a81548160ff021916908360ff1602179055509050505050505050565b60003390506000600460008373ffffffffffffffffffffffffffffffffffffffff1673ffffffffffffffffffffffffffffffffffffffff16815260200190815260200160002090506000816001015490508381101561086e576040517f08c379a00000000000000000000000000000000000000000000000000000000081526004016108659061178e565b60405180910390fd5b6000600460008773ffffffffffffffffffffffffffffffffffffffff1673ffffffffffffffffffffffffffffffffffffffff1681526020019081526020016000209050848360010160008282546108c5919061170e565b92505081905550848160010160008282546108e091906117ae565b92505081905550848360000160008282546108fb919061170e565b925050819055508481600001600082825461091691906117ae565b92505081905550505050505050565b60006003600084815260200190815260200160002060030160008373ffffffffffffffffffffffffffffffffffffffff1673ffffffffffffffffffffffffffffffffffffffff16815260200190815260200160002060000154905092915050565b600160009054906101000a900460ff16156109d6576040517f08c379a00000000000000000000000000000000000000000000000000000000081526004016109cd90611653565b60405180910390fd5b60003390506000600460008373ffffffffffffffffffffffffffffffffffffffff1673ffffffffffffffffffffffffffffffffffffffff168152602001908152602001600020905060008160030160008673ffffffffffffffffffffffffffffffffffffffff1673ffffffffffffffffffffffffffffffffffffffff16815260200190815260200160002054905083811015610aa7576040517f08c379a0000000000000000000000000000000000000000000000000000000008152600401610a9e9061182e565b60405180910390fd5b6000600460008773ffffffffffffffffffffffffffffffffffffffff1673ffffffffffffffffffffffffffffffffffffffff168152602001908152602001600020905084836001016000828254610afe91906117ae565b92505081905550848360030160008873ffffffffffffffffffffffffffffffffffffffff1673ffffffffffffffffffffffffffffffffffffffff1681526020019081526020016000206000828254610b56919061170e565b9250508190555084816002016000828254610b71919061170e565b92505081905550505050505050565b60003390506000600460008373ffffffffffffffffffffffffffffffffffffffff1673ffffffffffffffffffffffffffffffffffffffff168152602001908152602001600020905060008160010154905083811015610c14576040517f08c379a0000000000000000000000000000000000000000000000000000000008152600401610c0b9061189a565b60405180910390fd5b6000600460008773ffffffffffffffffffffffffffffffffffffffff1673ffffffffffffffffffffffffffffffffffffffff168152602001908152602001600020905084836001016000828254610c6b919061170e565b92505081905550848360030160008873ffffffffffffffffffffffffffffffffffffffff1673ffffffffffffffffffffffffffffffffffffffff1681526020019081526020016000206000828254610cc391906117ae565b9250508190555084816002016000828254610cde91906117ae565b92505081905550505050505050565b6000600460008473ffffffffffffffffffffffffffffffffffffffff1673ffffffffffffffffffffffffffffffffffffffff16815260200190815260200160002060030160008373ffffffffffffffffffffffffffffffffffffffff1673ffffffffffffffffffffffffffffffffffffffff16815260200190815260200160002054905092915050565b600060036000838152602001908152602001600020600101549050919050565b6000600460008373ffffffffffffffffffffffffffffffffffffffff1673ffffffffffffffffffffffffffffffffffffffff168152602001908152602001600020600001549050919050565b600160009054906101000a900460ff1615610e33576040517f08c379a0000000000000000000000000000000000000000000000000000000008152600401610e2a90611653565b60405180910390fd5b600080815480929190610e45906118ba565b919050555060018060006101000a81548160ff021916908315150217905550565b60008054905090565b600160009054906101000a900460ff16610ebe576040517f08c379a0000000000000000000000000000000000000000000000000000000008152600401610eb590611653565b60405180910390fd5b60018260ff161480610ed3575060028260ff16145b80610ee1575060038260ff16145b610f20576040517f08c379a0000000000000000000000000000000000000000000000000000000008152600401610f179061194e565b60405180910390fd5b600033905060006003600080548152602001908152602001600020905060008160030160008473ffffffffffffffffffffffffffffffffffffffff1673ffffffffffffffffffffffffffffffffffffffff168152602001908152602001600020604051806040016040529081600082015481526020016001820160009054906101000a900460ff1660ff1660ff168152505090506000816000015114610ffb576040517f08c379a0000000000000000000000000000000000000000000000000000000008152600401610ff2906119ba565b60405180910390fd5b6000600460008573ffffffffffffffffffffffffffffffffffffffff1673ffffffffffffffffffffffffffffffffffffffff16815260200190815260200160002060020154905084811015611085576040517f08c379a000000000000000000000000000000000000000000000000000000000815260040161107c9061189a565b60405180910390fd5b8482600001818152505085826020019060ff16908160ff168152505060018660ff16036110cc57848360000160008282546110c091906117ae565b92505081905550611114565b60028660ff16036110f757848360010160008282546110eb91906117ae565b92505081905550611113565b8483600201600082825461110b91906117ae565b925050819055505b5b818360030160008673ffffffffffffffffffffffffffffffffffffffff1673ffffffffffffffffffffffffffffffffffffffff1681526020019081526020016000206000820151816000015560208201518160010160006101000a81548160ff021916908360ff160217905550905050505050505050565b60006003600084815260200190815260200160002060030160008373ffffffffffffffffffffffffffffffffffffffff1673ffffffffffffffffffffffffffffffffffffffff16815260200190815260200160002060010160009054906101000a900460ff16905092915050565b600060036000838152602001908152602001600020600201549050919050565b6000600460008373ffffffffffffffffffffffffffffffffffffffff1673ffffffffffffffffffffffffffffffffffffffff168152602001908152602001600020600201549050919050565b600060036000838152602001908152602001600020600001549050919050565b60006003600083815260200190815260200160002060040160009054906101000a900460ff169050919050565b6000600160009054906101000a900460ff16905090565b6000600254905090565b600080fd5b600073ffffffffffffffffffffffffffffffffffffffff82169050919050565b6000611304826112d9565b9050919050565b611314816112f9565b811461131f57600080fd5b50565b6000813590506113318161130b565b92915050565b60006020828403121561134d5761134c6112d4565b5b600061135b84828501611322565b91505092915050565b6000819050919050565b61137781611364565b82525050565b6000602082019050611392600083018461136e565b92915050565b600060ff82169050919050565b6113ae81611398565b82525050565b60006020820190506113c960008301846113a5565b92915050565b6113d881611364565b81146113e357600080fd5b50565b6000813590506113f5816113cf565b92915050565b60008060408385031215611412576114116112d4565b5b600061142085828601611322565b9250506020611431858286016113e6565b9150509250929050565b60008060408385031215611452576114516112d4565b5b6000611460858286016113e6565b925050602061147185828601611322565b9150509250929050565b60008060408385031215611492576114916112d4565b5b60006114a085828601611322565b92505060206114b185828601611322565b9150509250929050565b6000602082840312156114d1576114d06112d4565b5b60006114df848285016113e6565b91505092915050565b6114f181611398565b81146114fc57600080fd5b50565b60008135905061150e816114e8565b92915050565b6000806040838503121561152b5761152a6112d4565b5b6000611539858286016114ff565b925050602061154a858286016113e6565b9150509250929050565b60008115159050919050565b61156981611554565b82525050565b60006020820190506115846000830184611560565b92915050565b600082825260208201905092915050565b7f766f7465206e6f7420696e2070726f6772657373000000000000000000000000600082015250565b60006115d160148361158a565b91506115dc8261159b565b602082019050919050565b60006020820190508181036000830152611600816115c4565b9050919050565b7f766f746520696e2070726f677265737300000000000000000000000000000000600082015250565b600061163d60108361158a565b915061164882611607565b602082019050919050565b6000602082019050818103600083015261166c81611630565b9050919050565b7f6e6f7420766f7465642079657400000000000000000000000000000000000000600082015250565b60006116a9600d8361158a565b91506116b482611673565b602082019050919050565b600060208201905081810360008301526116d88161169c565b9050919050565b7f4e487b7100000000000000000000000000000000000000000000000000000000600052601160045260246000fd5b600061171982611364565b915061172483611364565b925082820390508181111561173c5761173b6116df565b5b92915050565b7f6e6f7420656e6f75676820766f74657300000000000000000000000000000000600082015250565b600061177860108361158a565b915061178382611742565b602082019050919050565b600060208201905081810360008301526117a78161176b565b9050919050565b60006117b982611364565b91506117c483611364565b92508282019050808211156117dc576117db6116df565b5b92915050565b7f756e64656c676174696e67206d6f7265207468616e2062616c616e6365000000600082015250565b6000611818601d8361158a565b9150611823826117e2565b602082019050919050565b600060208201905081810360008301526118478161180b565b9050919050565b7f6e6f7420656e6f75676820766f74657320617661696c69626c65000000000000600082015250565b6000611884601a8361158a565b915061188f8261184e565b602082019050919050565b600060208201905081810360008301526118b381611877565b9050919050565b60006118c582611364565b91507fffffffffffffffffffffffffffffffffffffffffffffffffffffffffffffffff82036118f7576118f66116df565b5b600182019050919050565b7f766f7465206e6f742076616c6964000000000000000000000000000000000000600082015250565b6000611938600e8361158a565b915061194382611902565b602082019050919050565b600060208201905081810360008301526119678161192b565b9050919050565b7f616c726561647920766f74656400000000000000000000000000000000000000600082015250565b60006119a4600d8361158a565b91506119af8261196e565b602082019050919050565b600060208201905081810360008301526119d381611997565b905091905056fea2646970667358221220264e7a15cd2ba841969f639daa8b157ba05d4d9e39358f3c8f34cb2eeeb029fb64736f6c63430008110033",
  "linkReferences": {},
  "deployedLinkReferences": {}
}