{
  "_format": "hh-sol-artifact-1",
  "contractName": "Multi_Vote",
  "sourceName": "contracts/Multi_Vote.sol",
  "abi": [
    {
      "inputs": [
        {
          "internalType": "uint256",
          "name": "_total_supply",
          "type": "uint256"
        }
      ],
      "stateMutability": "nonpayable",
      "type": "constructor"
    },
    {
      "inputs": [
        {
          "internalType": "address",
          "name": "_to",
          "type": "address"
        },
        {
          "internalType": "uint256",
          "name": "_amount",
          "type": "uint256"
        }
      ],
      "name": "delegateTo",
      "outputs": [],
      "stateMutability": "nonpayable",
      "type": "function"
    },
    {
      "inputs": [],
      "name": "end_vote",
      "outputs": [
        {
          "internalType": "uint8",
          "name": "result",
          "type": "uint8"
        }
      ],
      "stateMutability": "nonpayable",
      "type": "function"
    },
    {
      "inputs": [],
      "name": "get_curr_proposal",
      "outputs": [
        {
          "internalType": "uint256",
          "name": "",
          "type": "uint256"
        }
      ],
      "stateMutability": "view",
      "type": "function"
    },
    {
      "inputs": [
        {
          "internalType": "uint256",
          "name": "_proposal",
          "type": "uint256"
        }
      ],
      "name": "get_proposal_abstain",
      "outputs": [
        {
          "internalType": "uint256",
          "name": "",
          "type": "uint256"
        }
      ],
      "stateMutability": "view",
      "type": "function"
    },
    {
      "inputs": [
        {
          "internalType": "uint256",
          "name": "_proposal",
          "type": "uint256"
        }
      ],
      "name": "get_proposal_against",
      "outputs": [
        {
          "internalType": "uint256",
          "name": "",
          "type": "uint256"
        }
      ],
      "stateMutability": "view",
      "type": "function"
    },
    {
      "inputs": [
        {
          "internalType": "uint256",
          "name": "_proposal",
          "type": "uint256"
        }
      ],
      "name": "get_proposal_pro",
      "outputs": [
        {
          "internalType": "uint256",
          "name": "",
          "type": "uint256"
        }
      ],
      "stateMutability": "view",
      "type": "function"
    },
    {
      "inputs": [
        {
          "internalType": "uint256",
          "name": "_proposal",
          "type": "uint256"
        }
      ],
      "name": "get_proposal_result",
      "outputs": [
        {
          "internalType": "uint8",
          "name": "",
          "type": "uint8"
        }
      ],
      "stateMutability": "view",
      "type": "function"
    },
    {
      "inputs": [],
      "name": "get_total_supply",
      "outputs": [
        {
          "internalType": "uint256",
          "name": "",
          "type": "uint256"
        }
      ],
      "stateMutability": "view",
      "type": "function"
    },
    {
      "inputs": [
        {
          "internalType": "address",
          "name": "user",
          "type": "address"
        },
        {
          "internalType": "address",
          "name": "delegatee",
          "type": "address"
        }
      ],
      "name": "get_user_delgated_amount",
      "outputs": [
        {
          "internalType": "uint256",
          "name": "",
          "type": "uint256"
        }
      ],
      "stateMutability": "view",
      "type": "function"
    },
    {
      "inputs": [
        {
          "internalType": "address",
          "name": "user",
          "type": "address"
        },
        {
          "internalType": "uint256",
          "name": "index",
          "type": "uint256"
        }
      ],
      "name": "get_user_history",
      "outputs": [
        {
          "internalType": "address",
          "name": "",
          "type": "address"
        }
      ],
      "stateMutability": "view",
      "type": "function"
    },
    {
      "inputs": [
        {
          "internalType": "address",
          "name": "user",
          "type": "address"
        }
      ],
      "name": "get_user_history_size",
      "outputs": [
        {
          "internalType": "uint256",
          "name": "",
          "type": "uint256"
        }
      ],
      "stateMutability": "view",
      "type": "function"
    },
    {
      "inputs": [
        {
          "internalType": "address",
          "name": "user",
          "type": "address"
        }
      ],
      "name": "get_user_total_availible",
      "outputs": [
        {
          "internalType": "uint256",
          "name": "",
          "type": "uint256"
        }
      ],
      "stateMutability": "view",
      "type": "function"
    },
    {
      "inputs": [
        {
          "internalType": "address",
          "name": "user",
          "type": "address"
        }
      ],
      "name": "get_user_total_balance",
      "outputs": [
        {
          "internalType": "uint256",
          "name": "",
          "type": "uint256"
        }
      ],
      "stateMutability": "view",
      "type": "function"
    },
    {
      "inputs": [
        {
          "internalType": "address",
          "name": "user",
          "type": "address"
        }
      ],
      "name": "get_user_total_power",
      "outputs": [
        {
          "internalType": "uint256",
          "name": "",
          "type": "uint256"
        }
      ],
      "stateMutability": "view",
      "type": "function"
    },
    {
      "inputs": [
        {
          "internalType": "uint256",
          "name": "_proposal",
          "type": "uint256"
        },
        {
          "internalType": "address",
          "name": "voter",
          "type": "address"
        }
      ],
      "name": "get_vote_amount",
      "outputs": [
        {
          "internalType": "uint256",
          "name": "",
          "type": "uint256"
        }
      ],
      "stateMutability": "view",
      "type": "function"
    },
    {
      "inputs": [],
      "name": "get_vote_in_progress",
      "outputs": [
        {
          "internalType": "bool",
          "name": "",
          "type": "bool"
        }
      ],
      "stateMutability": "view",
      "type": "function"
    },
    {
      "inputs": [
        {
          "internalType": "uint256",
          "name": "_proposal",
          "type": "uint256"
        },
        {
          "internalType": "address",
          "name": "voter",
          "type": "address"
        }
      ],
      "name": "get_vote_position",
      "outputs": [
        {
          "internalType": "uint8",
          "name": "",
          "type": "uint8"
        }
      ],
      "stateMutability": "view",
      "type": "function"
    },
    {
      "inputs": [],
      "name": "propose",
      "outputs": [],
      "stateMutability": "nonpayable",
      "type": "function"
    },
    {
      "inputs": [
        {
          "internalType": "address",
          "name": "_to",
          "type": "address"
        },
        {
          "internalType": "uint256",
          "name": "_amount",
          "type": "uint256"
        }
      ],
      "name": "transferTo",
      "outputs": [],
      "stateMutability": "nonpayable",
      "type": "function"
    },
    {
      "inputs": [],
      "name": "unVote",
      "outputs": [],
      "stateMutability": "nonpayable",
      "type": "function"
    },
    {
      "inputs": [
        {
          "internalType": "address",
          "name": "_to",
          "type": "address"
        },
        {
          "internalType": "uint256",
          "name": "_amount",
          "type": "uint256"
        }
      ],
      "name": "undelegate",
      "outputs": [],
      "stateMutability": "nonpayable",
      "type": "function"
    },
    {
      "inputs": [
        {
          "internalType": "uint8",
          "name": "_position",
          "type": "uint8"
        },
        {
          "internalType": "uint256",
          "name": "_amount",
          "type": "uint256"
        }
      ],
      "name": "vote",
      "outputs": [],
      "stateMutability": "nonpayable",
      "type": "function"
    }
  ],
  "bytecode": "0x60806040523480156200001157600080fd5b506040516200327e3803806200327e833981810160405281019062000037919062000249565b6200005367139b2ffe125a0ae360c01b6200020660201b60201c565b6200006f67572ac85d90eede9e60c01b6200020660201b60201c565b8060028190555062000092673d248cf49456f13a60c01b6200020660201b60201c565b620000ae67e40b9417fd325b5460c01b6200020660201b60201c565b6000339050620000cf678e53754485a76ae560c01b6200020660201b60201c565b620000eb67b7635eb97885019260c01b6200020660201b60201c565b6000600460008373ffffffffffffffffffffffffffffffffffffffff1673ffffffffffffffffffffffffffffffffffffffff16815260200190815260200160002090506200014a67076ad8dda3743bdb60c01b6200020660201b60201c565b82816001016000828254620001609190620002aa565b925050819055506200018367517fc9e2f17a607560c01b6200020660201b60201c565b82816000016000828254620001999190620002aa565b92505081905550620001bc677c4dbcb788f79e4460c01b6200020660201b60201c565b33600560006101000a81548173ffffffffffffffffffffffffffffffffffffffff021916908373ffffffffffffffffffffffffffffffffffffffff160217905550505050620002e5565b50565b600080fd5b6000819050919050565b62000223816200020e565b81146200022f57600080fd5b50565b600081519050620002438162000218565b92915050565b60006020828403121562000262576200026162000209565b5b6000620002728482850162000232565b91505092915050565b7f4e487b7100000000000000000000000000000000000000000000000000000000600052601160045260246000fd5b6000620002b7826200020e565b9150620002c4836200020e565b9250828201905080821115620002df57620002de6200027b565b5b92915050565b612f8980620002f56000396000f3fe608060405234801561001057600080fd5b50600436106101425760003560e01c8063b39649ea116100b8578063ddaeb1d01161007c578063ddaeb1d014610387578063de5740d2146103b7578063df6578be146103e7578063e5302c2f14610417578063e72997a814610447578063f923058c1461046557610142565b8063b39649ea146102e3578063c198f8ba14610313578063ca3adffc1461031d578063d3f29ace1461033b578063d81aeb201461035757610142565b80633c7e31171161010a5780633c7e3117146101eb5780634d99dd161461021b5780637363c9fa146102375780638bcd46201461026757806391b8f78514610283578063b3897a04146102b357610142565b80631cd6e9b8146101475780631f6933c3146101775780632c70d64e146101955780632ccb1b301461019f5780633bd5be94146101bb575b600080fd5b610161600480360381019061015c919061281a565b610483565b60405161016e9190612860565b60405180910390f35b61017f61050b565b60405161018c9190612897565b60405180910390f35b61019d61095c565b005b6101b960048036038101906101b491906128de565b610e1c565b005b6101d560048036038101906101d0919061291e565b6110ba565b6040516101e29190612860565b60405180910390f35b6102056004803603810190610200919061281a565b611157565b6040516102129190612860565b60405180910390f35b610235600480360381019061023091906128de565b6111df565b005b610251600480360381019061024c91906128de565b611569565b60405161025e919061296d565b60405180910390f35b610281600480360381019061027c91906128de565b611623565b005b61029d60048036038101906102989190612988565b611a09565b6040516102aa9190612860565b60405180910390f35b6102cd60048036038101906102c891906129c8565b611acf565b6040516102da9190612860565b60405180910390f35b6102fd60048036038101906102f8919061281a565b611b2b565b60405161030a9190612860565b60405180910390f35b61031b611bb3565b005b610325611df2565b6040516103329190612860565b60405180910390f35b61035560048036038101906103509190612a21565b611e38565b005b610371600480360381019061036c919061291e565b6124bd565b60405161037e9190612897565b60405180910390f35b6103a1600480360381019061039c91906129c8565b612567565b6040516103ae9190612860565b60405180910390f35b6103d160048036038101906103cc919061281a565b6125c3565b6040516103de9190612860565b60405180910390f35b61040160048036038101906103fc91906129c8565b61264b565b60405161040e9190612860565b60405180910390f35b610431600480360381019061042c91906129c8565b6126a7565b60405161043e9190612897565b60405180910390f35b61044f612710565b60405161045c9190612a7c565b60405180910390f35b61046d612763565b60405161047a9190612860565b60405180910390f35b60006104996782c6015cbc157c1a60c01b6127a9565b6104ad6787f0098b313d334560c01b6127a9565b6104c1673cd83d8bbc1bc82b60c01b6127a9565b600460008373ffffffffffffffffffffffffffffffffffffffff1673ffffffffffffffffffffffffffffffffffffffff168152602001908152602001600020600101549050919050565b60006105216764d3f87a2978e50860c01b6127a9565b6105356727c9e33838e04dc060c01b6127a9565b61054967b35a6ea34aabdf7560c01b6127a9565b61055d672b0db1d8decd434060c01b6127a9565b610571675968eb568dc4cec860c01b6127a9565b3373ffffffffffffffffffffffffffffffffffffffff16600560009054906101000a900473ffffffffffffffffffffffffffffffffffffffff1673ffffffffffffffffffffffffffffffffffffffff1614610601576040517f08c379a00000000000000000000000000000000000000000000000000000000081526004016105f890612af4565b60405180910390fd5b6106156748b11ef14909446760c01b6127a9565b61062967ab89fd3f2a6e00d260c01b6127a9565b61063d67a7af64559ff4a62660c01b6127a9565b61065167cb8578c17e53d73560c01b6127a9565b6106656750645d77be83e8fc60c01b6127a9565b610679671371b545ec872cf060c01b6127a9565b61068d67830a05e2b94ff21060c01b6127a9565b600160009054906101000a900460ff166106dc576040517f08c379a00000000000000000000000000000000000000000000000000000000081526004016106d390612b60565b60405180910390fd5b6106f06755dfc34295d1590260c01b6127a9565b61070467e78ad9c5139c866960c01b6127a9565b61071867062a58832cb7fb6760c01b6127a9565b60006003600080548152602001908152602001600020905061074467659f5e31e4845f5260c01b6127a9565b6000600160006101000a81548160ff02191690831515021790555061077367dd756f18ee76918f60c01b6127a9565b610787676b2110c4e9ff156a60c01b6127a9565b806001015481600001541180156107a5575080600201548160000154115b15610822576107be67fd74b966eec8c37c60c01b6127a9565b6107d26759f1e706b000cde860c01b6127a9565b60018160040160006101000a81548160ff021916908360ff160217905550610804677c19e187023e261560c01b6127a9565b6108186726e16a8a063459b460c01b6127a9565b6001915050610959565b61083667100ebbd8bf7e843560c01b6127a9565b61084a67fde79fd2d8a8287d60c01b6127a9565b80600001548160010154118015610868575080600201548160010154115b156108e55761088167ff709f0ac836f9c860c01b6127a9565b61089567558899e2532a4fe860c01b6127a9565b60028160040160006101000a81548160ff021916908360ff1602179055506108c7675f34bb42aa95562c60c01b6127a9565b6108db67c389314fced086c860c01b6127a9565b6002915050610959565b6108f9675f1c07b6a94e9b0860c01b6127a9565b61090d67c9943054a92745b560c01b6127a9565b60038160040160006101000a81548160ff021916908360ff16021790555061093f672b2d082887832a5460c01b6127a9565b61095367ecfe747eebf9e04660c01b6127a9565b60039150505b90565b610970679c015ac72886c0ea60c01b6127a9565b61098467d1c4bb18718dafde60c01b6127a9565b610998678d418e5bfad463a960c01b6127a9565b6109ac670c53cdd8c2a3c9b660c01b6127a9565b600160009054906101000a900460ff166109fb576040517f08c379a00000000000000000000000000000000000000000000000000000000081526004016109f290612bcc565b60405180910390fd5b610a0f67c31a5b78948b4c6d60c01b6127a9565b610a23670df3e797db45fe4c60c01b6127a9565b610a37678999d8f8bb40d2b360c01b6127a9565b6000339050610a5067d4eea295ceccbd2160c01b6127a9565b610a646713ccccd14ec5e62a60c01b6127a9565b600060036000805481526020019081526020016000209050610a90675a570e9f0576d80560c01b6127a9565b610aa46754ce7bc48268183d60c01b6127a9565b60008160030160008473ffffffffffffffffffffffffffffffffffffffff1673ffffffffffffffffffffffffffffffffffffffff168152602001908152602001600020604051806040016040529081600082015481526020016001820160009054906101000a900460ff1660ff1660ff16815250509050610b2f67bbf0f5d3385a7c8f60c01b6127a9565b610b436735ed07c31d96ce8960c01b6127a9565b600081602001519050610b60678da308af1fb287ca60c01b6127a9565b610b746782aaafa2cb61091f60c01b6127a9565b600082600001519050610b91673732fdd50fd5689660c01b6127a9565b610ba567df732a4620fb206b60c01b6127a9565b610bb9673265093240629b4160c01b6127a9565b60008103610bfc576040517f08c379a0000000000000000000000000000000000000000000000000000000008152600401610bf390612c38565b60405180910390fd5b610c1067475a4259355bf7f360c01b6127a9565b610c246760a319a1ebeb244c60c01b6127a9565b610c386797c5654aab89da2260c01b6127a9565b60018260ff1603610c8b57610c5767117a8eb1c493ba0860c01b6127a9565b610c6b678f81bae4bf31b46c60c01b6127a9565b80846000016000828254610c7f9190612c87565b92505081905550610d4b565b610c9f67b0fa022dae1b20a160c01b6127a9565b610cb3672469d06dd589889b60c01b6127a9565b60028260ff1603610d0657610cd2677a3de906eff4e9c160c01b6127a9565b610ce6672ea9de170a95b95860c01b6127a9565b80846001016000828254610cfa9190612c87565b92505081905550610d4a565b610d1a676c3cd1475d03273060c01b6127a9565b610d2e6707b7303239c462e260c01b6127a9565b80846002016000828254610d429190612c87565b925050819055505b5b610d5f679b652890a671cd4360c01b6127a9565b6000836000018181525050610d7e673f6ca99284716f2060c01b6127a9565b6000836020019060ff16908160ff1681525050610da5678de89c197764836b60c01b6127a9565b828460030160008773ffffffffffffffffffffffffffffffffffffffff1673ffffffffffffffffffffffffffffffffffffffff1681526020019081526020016000206000820151816000015560208201518160010160006101000a81548160ff021916908360ff1602179055509050505050505050565b610e306787553a2c0695fec960c01b6127a9565b610e436626f1b3b574207860c01b6127a9565b610e5767af12b7850289cc2c60c01b6127a9565b6000339050610e70673063f9ded2920a4c60c01b6127a9565b610e8467be671fd16885cac960c01b6127a9565b6000600460008373ffffffffffffffffffffffffffffffffffffffff1673ffffffffffffffffffffffffffffffffffffffff1681526020019081526020016000209050610edb67be86b7a0eb9595aa60c01b6127a9565b610eef676dd38e794ca2dc5c60c01b6127a9565b600081600101549050610f0c67872928668f1a358460c01b6127a9565b610f2067130f0b0672987c4260c01b6127a9565b610f3467d0d4e51b7e17423660c01b6127a9565b83811015610f77576040517f08c379a0000000000000000000000000000000000000000000000000000000008152600401610f6e90612d07565b60405180910390fd5b610f8b67aef56ffa9b036e3f60c01b6127a9565b610f9f6702a750bfaec4b10560c01b6127a9565b610fb3675b79d7245b95b07b60c01b6127a9565b6000600460008773ffffffffffffffffffffffffffffffffffffffff1673ffffffffffffffffffffffffffffffffffffffff168152602001908152602001600020905061100a67c1e9810e722a41a560c01b6127a9565b8483600101600082825461101e9190612c87565b92505081905550611039674cf743095548135860c01b6127a9565b8481600101600082825461104d9190612d27565b9250508190555061106867f2c8084aa6857d7860c01b6127a9565b8483600001600082825461107c9190612c87565b92505081905550611097679272d65af757913f60c01b6127a9565b848160000160008282546110ab9190612d27565b92505081905550505050505050565b60006110d067f0e3c3fa009c294660c01b6127a9565b6110e467e2171b573511b19d60c01b6127a9565b6110f867c3dbe07e3c8e4d5960c01b6127a9565b6003600084815260200190815260200160002060030160008373ffffffffffffffffffffffffffffffffffffffff1673ffffffffffffffffffffffffffffffffffffffff16815260200190815260200160002060000154905092915050565b600061116d67bfd88cbdf322dd2160c01b6127a9565b611181670c4cd1e0bd46247460c01b6127a9565b6111956712d10710641dce7660c01b6127a9565b600460008373ffffffffffffffffffffffffffffffffffffffff1673ffffffffffffffffffffffffffffffffffffffff168152602001908152602001600020600501549050919050565b6111f367c14d3a1843d8218460c01b6127a9565b61120767789c50d8f3a81c3060c01b6127a9565b61121b67b9149e3555f006f360c01b6127a9565b61122f677159aa9c247fb31b60c01b6127a9565b600160009054906101000a900460ff161561127f576040517f08c379a000000000000000000000000000000000000000000000000000000000815260040161127690612bcc565b60405180910390fd5b6112936721dc82c5d85bf58760c01b6127a9565b6112a767191d85ed566eb5b860c01b6127a9565b6112bb67a1289a69a145196560c01b6127a9565b60003390506112d467705c42eab8ecf3b360c01b6127a9565b6112e867baae0f48f72de24460c01b6127a9565b6000600460008373ffffffffffffffffffffffffffffffffffffffff1673ffffffffffffffffffffffffffffffffffffffff168152602001908152602001600020905061133f67158ff31e08cfb9b560c01b6127a9565b61135367aff9dc55122c137d60c01b6127a9565b60008160030160008673ffffffffffffffffffffffffffffffffffffffff1673ffffffffffffffffffffffffffffffffffffffff1681526020019081526020016000205490506113ad6780ff1f1c45d9e2b260c01b6127a9565b6113c167afc230c2da7e1de460c01b6127a9565b6113d567032dde655e666cef60c01b6127a9565b83811015611418576040517f08c379a000000000000000000000000000000000000000000000000000000000815260040161140f90612da7565b60405180910390fd5b61142c6792d4ed70f342d57a60c01b6127a9565b61144067146e5187c29b518960c01b6127a9565b61145467151980218b6fdbfb60c01b6127a9565b6000600460008773ffffffffffffffffffffffffffffffffffffffff1673ffffffffffffffffffffffffffffffffffffffff16815260200190815260200160002090506114ab676c1cb9150a9ed83d60c01b6127a9565b848360010160008282546114bf9190612d27565b925050819055506114da67044c3d6fdbde5a1960c01b6127a9565b848360030160008873ffffffffffffffffffffffffffffffffffffffff1673ffffffffffffffffffffffffffffffffffffffff168152602001908152602001600020600082825461152b9190612c87565b9250508190555061154667812f553b3cd4603060c01b6127a9565b8481600201600082825461155a9190612c87565b92505081905550505050505050565b600061157f67d4c8759bfe0a0d2160c01b6127a9565b611593674bff6a364ac1e6c860c01b6127a9565b6115a767b354efcf36c18f1d60c01b6127a9565b600460008473ffffffffffffffffffffffffffffffffffffffff1673ffffffffffffffffffffffffffffffffffffffff168152602001908152602001600020600401600083815260200190815260200160002060009054906101000a900473ffffffffffffffffffffffffffffffffffffffff16905092915050565b6116376737c89d125b209d4e60c01b6127a9565b61164b6717bb726024f4cd4c60c01b6127a9565b61165f67daf88fa758869b6c60c01b6127a9565b60003390506116786742247511e2dbf6f960c01b6127a9565b61168c67dd45aad67061a3c760c01b6127a9565b6000600460008373ffffffffffffffffffffffffffffffffffffffff1673ffffffffffffffffffffffffffffffffffffffff16815260200190815260200160002090506116e36779e7fdaf3215f0ed60c01b6127a9565b6116f767c03353e9b15f0c5060c01b6127a9565b60008160010154905061171467e09a9fedaba509b760c01b6127a9565b61172867866dd8e09554315a60c01b6127a9565b61173c677e98442e175eb3b460c01b6127a9565b8381101561177f576040517f08c379a000000000000000000000000000000000000000000000000000000000815260040161177690612e13565b60405180910390fd5b61179367ba09866e7b9dc0fd60c01b6127a9565b6117a767c51ff373fe0904a360c01b6127a9565b6117bb679feb3d0ba8e5b95e60c01b6127a9565b6000600460008773ffffffffffffffffffffffffffffffffffffffff1673ffffffffffffffffffffffffffffffffffffffff168152602001908152602001600020905061181267d630d713fd68454a60c01b6127a9565b611826671082595003aae0f960c01b6127a9565b60008360030160008873ffffffffffffffffffffffffffffffffffffffff1673ffffffffffffffffffffffffffffffffffffffff16815260200190815260200160002054036119225761188367f5cca3db2d47208f60c01b6127a9565b611897674c27168728990b0a60c01b6127a9565b858360040160008560050154815260200190815260200160002060006101000a81548173ffffffffffffffffffffffffffffffffffffffff021916908373ffffffffffffffffffffffffffffffffffffffff160217905550611903674c5b5ecacb88fb6960c01b6127a9565b82600501600081548092919061191890612e33565b9190505550611937565b6119366780490221001fbc8460c01b6127a9565b5b61194b6758e558af9768be3a60c01b6127a9565b8483600101600082825461195f9190612c87565b9250508190555061197a67734bc248b86fdb2160c01b6127a9565b848360030160008873ffffffffffffffffffffffffffffffffffffffff1673ffffffffffffffffffffffffffffffffffffffff16815260200190815260200160002060008282546119cb9190612d27565b925050819055506119e667eac05f5a4aa7df6e60c01b6127a9565b848160020160008282546119fa9190612d27565b92505081905550505050505050565b6000611a1f67192bae7727d6035360c01b6127a9565b611a3367175c2f5f91396d1860c01b6127a9565b611a4767faff8a9d34c3368160c01b6127a9565b600460008473ffffffffffffffffffffffffffffffffffffffff1673ffffffffffffffffffffffffffffffffffffffff16815260200190815260200160002060030160008373ffffffffffffffffffffffffffffffffffffffff1673ffffffffffffffffffffffffffffffffffffffff16815260200190815260200160002054905092915050565b6000611ae5674bd5c0557a45af2960c01b6127a9565b611af967b16958b52d51c6d960c01b6127a9565b611b0d671c183e181191eb7560c01b6127a9565b60036000838152602001908152602001600020600101549050919050565b6000611b416780a7e985aaaa8ab260c01b6127a9565b611b55674a707e56cb8a037460c01b6127a9565b611b69679f3918e853b315d360c01b6127a9565b600460008373ffffffffffffffffffffffffffffffffffffffff1673ffffffffffffffffffffffffffffffffffffffff168152602001908152602001600020600001549050919050565b611bc767ff0342210e5dbcd960c01b6127a9565b611bdb6727c9e33838e04dc060c01b6127a9565b611bef67b35a6ea34aabdf7560c01b6127a9565b611c03672b0db1d8decd434060c01b6127a9565b611c17675968eb568dc4cec860c01b6127a9565b3373ffffffffffffffffffffffffffffffffffffffff16600560009054906101000a900473ffffffffffffffffffffffffffffffffffffffff1673ffffffffffffffffffffffffffffffffffffffff1614611ca7576040517f08c379a0000000000000000000000000000000000000000000000000000000008152600401611c9e90612af4565b60405180910390fd5b611cbb6748b11ef14909446760c01b6127a9565b611ccf67ab89fd3f2a6e00d260c01b6127a9565b611ce36783ac97d746e2929660c01b6127a9565b611cf767c72099739974d7cc60c01b6127a9565b611d0b67a80e92dd99efae9760c01b6127a9565b611d1f67e72d646eaf86ac6460c01b6127a9565b611d33676477fefbae5db9a360c01b6127a9565b600160009054906101000a900460ff1615611d83576040517f08c379a0000000000000000000000000000000000000000000000000000000008152600401611d7a90612bcc565b60405180910390fd5b611d9767e5a69947c7059e7660c01b6127a9565b611dab67d418ed1aebbad8ed60c01b6127a9565b600080815480929190611dbd90612e33565b9190505550611dd667b39a6a2e6f3c751960c01b6127a9565b60018060006101000a81548160ff021916908315150217905550565b6000611e0867486e003417005be560c01b6127a9565b611e1c67e27958feace91e1260c01b6127a9565b611e3067f149688df36493aa60c01b6127a9565b600054905090565b611e4c6779a5f344cc5bec8a60c01b6127a9565b611e6067c39ad48bbb4e5ef460c01b6127a9565b611e746718c8fcb8e1ed996460c01b6127a9565b611e8867d4abc7088c3cda5460c01b6127a9565b600160009054906101000a900460ff16611ed7576040517f08c379a0000000000000000000000000000000000000000000000000000000008152600401611ece90612bcc565b60405180910390fd5b611eeb67caece61c0dfbb90c60c01b6127a9565b611eff67ac956da530dc5c0960c01b6127a9565b611f1367761c425cabb2502d60c01b6127a9565b611f276761ca069193a8bf9e60c01b6127a9565b60018260ff16148015611f4a5750611f49675bd0c93e3edab2f460c01b6127ac565b5b80611f90575060028260ff16148015611f735750611f72673b5c3eb11471cdc860c01b6127ac565b5b8015611f8f5750611f8e67b1c36a508a14f9d960c01b6127ac565b5b5b80611fba575060038260ff16148015611fb95750611fb8675488e1270ddff22160c01b6127ac565b5b5b611ff9576040517f08c379a0000000000000000000000000000000000000000000000000000000008152600401611ff090612ec7565b60405180910390fd5b61200d67412459bba37b206160c01b6127a9565b612021671e53f86a1b36ac1060c01b6127a9565b6120356757c7ec185652e08760c01b6127a9565b600033905061204e672ab9fca38f7bbdfb60c01b6127a9565b61206267760f3aed7b76b5a560c01b6127a9565b60006003600080548152602001908152602001600020905061208e67c8ae7171ddc4ae0c60c01b6127a9565b6120a267e7ced46850556a8c60c01b6127a9565b60008160030160008473ffffffffffffffffffffffffffffffffffffffff1673ffffffffffffffffffffffffffffffffffffffff168152602001908152602001600020604051806040016040529081600082015481526020016001820160009054906101000a900460ff1660ff1660ff1681525050905061212d6749c487e8df499b9160c01b6127a9565b61214167e3b7adbbfc5c7a9360c01b6127a9565b612155674ae19d8dd3fb8e6a60c01b6127a9565b600081600001511461219c576040517f08c379a000000000000000000000000000000000000000000000000000000000815260040161219390612f33565b60405180910390fd5b6121b0673031d43d2d59410260c01b6127a9565b6121c467d7590e59b0a0c4b560c01b6127a9565b6121d867d468cd727e4913d860c01b6127a9565b6000600460008573ffffffffffffffffffffffffffffffffffffffff1673ffffffffffffffffffffffffffffffffffffffff168152602001908152602001600020600201549050612233671131a1e3e1f34bde60c01b6127a9565b61224767f7ad2c5d485071d260c01b6127a9565b61225b67ff4b1bc3af7f028a60c01b6127a9565b8481101561229e576040517f08c379a000000000000000000000000000000000000000000000000000000000815260040161229590612e13565b60405180910390fd5b6122b267ac826cb345c070e560c01b6127a9565b6122c66764d14923ccc3d0e160c01b6127a9565b848260000181815250506122e467c6132603d434474460c01b6127a9565b85826020019060ff16908160ff168152505061230a67fb74a166e9a7e37460c01b6127a9565b61231e678f5b25c6f90aa8c060c01b6127a9565b60018660ff16036123715761233d6751acdbef31d11cad60c01b6127a9565b612351679a74d9a7666585f560c01b6127a9565b848360000160008282546123659190612d27565b92505081905550612431565b61238567495da628ed27395f60c01b6127a9565b61239967141475fa3bcd8f6760c01b6127a9565b60028660ff16036123ec576123b86775a8f20e42fb228360c01b6127a9565b6123cc673d507b69c39df74a60c01b6127a9565b848360010160008282546123e09190612d27565b92505081905550612430565b6124006742d1ba138c8dd3fd60c01b6127a9565b612414672030b3dd2f3f351260c01b6127a9565b848360020160008282546124289190612d27565b925050819055505b5b6124456751c4595fb348a28160c01b6127a9565b818360030160008673ffffffffffffffffffffffffffffffffffffffff1673ffffffffffffffffffffffffffffffffffffffff1681526020019081526020016000206000820151816000015560208201518160010160006101000a81548160ff021916908360ff160217905550905050505050505050565b60006124d367a47524b8d33079e460c01b6127a9565b6124e767c6582676b034f51a60c01b6127a9565b6124fb67a818e18a84c0afae60c01b6127a9565b6003600084815260200190815260200160002060030160008373ffffffffffffffffffffffffffffffffffffffff1673ffffffffffffffffffffffffffffffffffffffff16815260200190815260200160002060010160009054906101000a900460ff16905092915050565b600061257d6791a318c31003d04f60c01b6127a9565b612591673a09267625c02e1f60c01b6127a9565b6125a567a1bfac63a69414ef60c01b6127a9565b60036000838152602001908152602001600020600201549050919050565b60006125d9677e7fdc91450842d260c01b6127a9565b6125ed6741f69c8b976ee72360c01b6127a9565b61260167a5f187095c82736d60c01b6127a9565b600460008373ffffffffffffffffffffffffffffffffffffffff1673ffffffffffffffffffffffffffffffffffffffff168152602001908152602001600020600201549050919050565b600061266167d9ef2e7ffee84bef60c01b6127a9565b61267567a343e3cb47e4047260c01b6127a9565b61268967054e0df8560470b760c01b6127a9565b60036000838152602001908152602001600020600001549050919050565b60006126bd6757d45b814a911a9560c01b6127a9565b6126d1672d901536d7c1dcad60c01b6127a9565b6126e56761212db7fe1201c860c01b6127a9565b6003600083815260200190815260200160002060040160009054906101000a900460ff169050919050565b60006127266744eb9f25665acc7160c01b6127a9565b61273a67dd2c1df72f51079760c01b6127a9565b61274e676ab445a578544a7c60c01b6127a9565b600160009054906101000a900460ff16905090565b60006127796773e8ad530a1848c960c01b6127a9565b61278d679e82c7a4a8e688b260c01b6127a9565b6127a167cce1555c8201055560c01b6127a9565b600254905090565b50565b600060019050919050565b600080fd5b600073ffffffffffffffffffffffffffffffffffffffff82169050919050565b60006127e7826127bc565b9050919050565b6127f7816127dc565b811461280257600080fd5b50565b600081359050612814816127ee565b92915050565b6000602082840312156128305761282f6127b7565b5b600061283e84828501612805565b91505092915050565b6000819050919050565b61285a81612847565b82525050565b60006020820190506128756000830184612851565b92915050565b600060ff82169050919050565b6128918161287b565b82525050565b60006020820190506128ac6000830184612888565b92915050565b6128bb81612847565b81146128c657600080fd5b50565b6000813590506128d8816128b2565b92915050565b600080604083850312156128f5576128f46127b7565b5b600061290385828601612805565b9250506020612914858286016128c9565b9150509250929050565b60008060408385031215612935576129346127b7565b5b6000612943858286016128c9565b925050602061295485828601612805565b9150509250929050565b612967816127dc565b82525050565b6000602082019050612982600083018461295e565b92915050565b6000806040838503121561299f5761299e6127b7565b5b60006129ad85828601612805565b92505060206129be85828601612805565b9150509250929050565b6000602082840312156129de576129dd6127b7565b5b60006129ec848285016128c9565b91505092915050565b6129fe8161287b565b8114612a0957600080fd5b50565b600081359050612a1b816129f5565b92915050565b60008060408385031215612a3857612a376127b7565b5b6000612a4685828601612a0c565b9250506020612a57858286016128c9565b9150509250929050565b60008115159050919050565b612a7681612a61565b82525050565b6000602082019050612a916000830184612a6d565b92915050565b600082825260208201905092915050565b7f4f776e61626c653a2063616c6c6572206973206e6f7420746865206f776e6572600082015250565b6000612ade602083612a97565b9150612ae982612aa8565b602082019050919050565b60006020820190508181036000830152612b0d81612ad1565b9050919050565b7f766f7465206e6f7420696e2070726f6772657373000000000000000000000000600082015250565b6000612b4a601483612a97565b9150612b5582612b14565b602082019050919050565b60006020820190508181036000830152612b7981612b3d565b9050919050565b7f766f746520696e2070726f677265737300000000000000000000000000000000600082015250565b6000612bb6601083612a97565b9150612bc182612b80565b602082019050919050565b60006020820190508181036000830152612be581612ba9565b9050919050565b7f6e6f7420766f7465642079657400000000000000000000000000000000000000600082015250565b6000612c22600d83612a97565b9150612c2d82612bec565b602082019050919050565b60006020820190508181036000830152612c5181612c15565b9050919050565b7f4e487b7100000000000000000000000000000000000000000000000000000000600052601160045260246000fd5b6000612c9282612847565b9150612c9d83612847565b9250828203905081811115612cb557612cb4612c58565b5b92915050565b7f6e6f7420656e6f75676820766f74657300000000000000000000000000000000600082015250565b6000612cf1601083612a97565b9150612cfc82612cbb565b602082019050919050565b60006020820190508181036000830152612d2081612ce4565b9050919050565b6000612d3282612847565b9150612d3d83612847565b9250828201905080821115612d5557612d54612c58565b5b92915050565b7f756e64656c676174696e67206d6f7265207468616e2062616c616e6365000000600082015250565b6000612d91601d83612a97565b9150612d9c82612d5b565b602082019050919050565b60006020820190508181036000830152612dc081612d84565b9050919050565b7f6e6f7420656e6f75676820766f74657320617661696c69626c65000000000000600082015250565b6000612dfd601a83612a97565b9150612e0882612dc7565b602082019050919050565b60006020820190508181036000830152612e2c81612df0565b9050919050565b6000612e3e82612847565b91507fffffffffffffffffffffffffffffffffffffffffffffffffffffffffffffffff8203612e7057612e6f612c58565b5b600182019050919050565b7f766f7465206e6f742076616c6964000000000000000000000000000000000000600082015250565b6000612eb1600e83612a97565b9150612ebc82612e7b565b602082019050919050565b60006020820190508181036000830152612ee081612ea4565b9050919050565b7f616c726561647920766f74656400000000000000000000000000000000000000600082015250565b6000612f1d600d83612a97565b9150612f2882612ee7565b602082019050919050565b60006020820190508181036000830152612f4c81612f10565b905091905056fea26469706673582212207cbebf4d8c08258d80bd969d78ee3e02e2df87305c2ece2c923195ae6044a9dc64736f6c63430008110033",
  "linkReferences": {},
  "deployedLinkReferences": {}
}